{
  "_format": "hh-sol-artifact-1",
  "contractName": "MultiWallet",
  "sourceName": "contracts/MultiWallet.sol",
  "abi": [
    {
      "inputs": [],
      "stateMutability": "nonpayable",
      "type": "constructor"
    },
    {
      "anonymous": false,
      "inputs": [
        {
          "indexed": true,
          "internalType": "string",
          "name": "username",
          "type": "string"
        },
        {
          "indexed": false,
          "internalType": "address",
          "name": "walletAddress",
          "type": "address"
        }
      ],
      "name": "AddressAssigned",
      "type": "event"
    },
    {
      "anonymous": false,
      "inputs": [
        {
          "indexed": true,
          "internalType": "address",
          "name": "receiver",
          "type": "address"
        },
        {
          "indexed": true,
          "internalType": "string",
          "name": "username",
          "type": "string"
        },
        {
          "indexed": false,
          "internalType": "uint256",
          "name": "amount",
          "type": "uint256"
        }
      ],
      "name": "FundsDeposited",
      "type": "event"
    },
    {
      "anonymous": false,
      "inputs": [
        {
          "indexed": true,
          "internalType": "address",
          "name": "receiver",
          "type": "address"
        },
        {
          "indexed": true,
          "internalType": "string",
          "name": "username",
          "type": "string"
        },
        {
          "indexed": false,
          "internalType": "uint256",
          "name": "amount",
          "type": "uint256"
        }
      ],
      "name": "FundsWithdrawn",
      "type": "event"
    },
    {
      "inputs": [
        {
          "internalType": "string",
          "name": "username",
          "type": "string"
        },
        {
          "internalType": "address",
          "name": "walletAddress",
          "type": "address"
        }
      ],
      "name": "assignAddressToUsername",
      "outputs": [],
      "stateMutability": "nonpayable",
      "type": "function"
    },
    {
      "inputs": [
        {
          "internalType": "address",
          "name": "",
          "type": "address"
        },
        {
          "internalType": "string",
          "name": "",
          "type": "string"
        }
      ],
      "name": "balances",
      "outputs": [
        {
          "internalType": "uint256",
          "name": "",
          "type": "uint256"
        }
      ],
      "stateMutability": "view",
      "type": "function"
    },
    {
      "inputs": [
        {
          "internalType": "string[]",
          "name": "usernames",
          "type": "string[]"
        },
        {
          "internalType": "uint256[]",
          "name": "amountsInEther",
          "type": "uint256[]"
        }
      ],
      "name": "deposit",
      "outputs": [],
      "stateMutability": "payable",
      "type": "function"
    },
    {
      "inputs": [
        {
          "internalType": "string",
          "name": "username",
          "type": "string"
        }
      ],
      "name": "getAddressForUsername",
      "outputs": [
        {
          "internalType": "address",
          "name": "",
          "type": "address"
        }
      ],
      "stateMutability": "view",
      "type": "function"
    },
    {
      "inputs": [
        {
          "internalType": "string",
          "name": "username",
          "type": "string"
        }
      ],
      "name": "getBalance",
      "outputs": [
        {
          "internalType": "uint256",
          "name": "",
          "type": "uint256"
        }
      ],
      "stateMutability": "view",
      "type": "function"
    },
    {
      "inputs": [],
      "name": "owner",
      "outputs": [
        {
          "internalType": "address",
          "name": "",
          "type": "address"
        }
      ],
      "stateMutability": "view",
      "type": "function"
    },
    {
      "inputs": [],
      "name": "temporaryAddress",
      "outputs": [
        {
          "internalType": "address",
          "name": "",
          "type": "address"
        }
      ],
      "stateMutability": "view",
      "type": "function"
    },
    {
      "inputs": [
        {
          "internalType": "string",
          "name": "",
          "type": "string"
        }
      ],
      "name": "usernameToAddress",
      "outputs": [
        {
          "internalType": "address",
          "name": "",
          "type": "address"
        }
      ],
      "stateMutability": "view",
      "type": "function"
    },
    {
      "inputs": [
        {
          "internalType": "string",
          "name": "username",
          "type": "string"
        },
        {
          "internalType": "uint256",
          "name": "amountInWei",
          "type": "uint256"
        }
      ],
      "name": "withdraw",
      "outputs": [],
      "stateMutability": "nonpayable",
      "type": "function"
    }
  ],
  "bytecode": "0x608060405234801561001057600080fd5b50336000806101000a81548173ffffffffffffffffffffffffffffffffffffffff021916908373ffffffffffffffffffffffffffffffffffffffff1602179055506119a8806100606000396000f3fe6080604052600436106100865760003560e01c80633a51d246116100595780633a51d24614610159578063877e531e146101965780638da5cb5b146101b2578063bacd359a146101dd578063f825f1431461020657610086565b806305d01f501461008b578063095a0535146100c8578063284c3b3b1461010557806330b39a6214610130575b600080fd5b34801561009757600080fd5b506100b260048036038101906100ad91906110eb565b610243565b6040516100bf9190611160565b60405180910390f35b3480156100d457600080fd5b506100ef60048036038101906100ea919061117b565b61027e565b6040516100fc91906111d3565b60405180910390f35b34801561011157600080fd5b5061011a6102c6565b60405161012791906111d3565b60405180910390f35b34801561013c57600080fd5b506101576004803603810190610152919061121a565b6102ec565b005b34801561016557600080fd5b50610180600480360381019061017b919061117b565b61055d565b60405161018d9190611160565b60405180910390f35b6101b060048036038101906101ab919061141f565b6106c0565b005b3480156101be57600080fd5b506101c7610af7565b6040516101d491906111d3565b60405180910390f35b3480156101e957600080fd5b5061020460048036038101906101ff9190611497565b610b1b565b005b34801561021257600080fd5b5061022d6004803603810190610228919061117b565b610eea565b60405161023a91906111d3565b60405180910390f35b600360205281600052604060002081805160208101820180518482526020830160208501208183528095505050505050600091509150505481565b60006002826040516102909190611564565b908152602001604051809103902060009054906101000a900473ffffffffffffffffffffffffffffffffffffffff169050919050565b600160009054906101000a900473ffffffffffffffffffffffffffffffffffffffff1681565b60006002836040516102fe9190611564565b908152602001604051809103902060009054906101000a900473ffffffffffffffffffffffffffffffffffffffff1690503373ffffffffffffffffffffffffffffffffffffffff168173ffffffffffffffffffffffffffffffffffffffff161461039d576040517f08c379a0000000000000000000000000000000000000000000000000000000008152600401610394906115fe565b60405180910390fd5b81600360008373ffffffffffffffffffffffffffffffffffffffff1673ffffffffffffffffffffffffffffffffffffffff168152602001908152602001600020846040516103eb9190611564565b908152602001604051809103902054101561043b576040517f08c379a00000000000000000000000000000000000000000000000000000000081526004016104329061166a565b60405180910390fd5b81600360008373ffffffffffffffffffffffffffffffffffffffff1673ffffffffffffffffffffffffffffffffffffffff168152602001908152602001600020846040516104899190611564565b908152602001604051809103902060008282546104a691906116b9565b925050819055503373ffffffffffffffffffffffffffffffffffffffff166108fc839081150290604051600060405180830381858888f193505050501580156104f3573d6000803e3d6000fd5b50826040516105029190611564565b60405180910390208173ffffffffffffffffffffffffffffffffffffffff167fe72e45c937393adb200d2f0b1e3ca5ab4d3c67ac00d0c8ffdfdcc9bc24d15ba1846040516105509190611160565b60405180910390a3505050565b6000806002836040516105709190611564565b908152602001604051809103902060009054906101000a900473ffffffffffffffffffffffffffffffffffffffff169050600073ffffffffffffffffffffffffffffffffffffffff168173ffffffffffffffffffffffffffffffffffffffff160361065b5760036000600160009054906101000a900473ffffffffffffffffffffffffffffffffffffffff1673ffffffffffffffffffffffffffffffffffffffff1673ffffffffffffffffffffffffffffffffffffffff168152602001908152602001600020836040516106449190611564565b9081526020016040518091039020549150506106bb565b600360008273ffffffffffffffffffffffffffffffffffffffff1673ffffffffffffffffffffffffffffffffffffffff168152602001908152602001600020836040516106a89190611564565b9081526020016040518091039020549150505b919050565b8051825114610704576040517f08c379a00000000000000000000000000000000000000000000000000000000081526004016106fb90611739565b60405180910390fd5b6000805b835181101561099557600084828151811061072657610725611759565b5b60200260200101519050600084838151811061074557610744611759565b5b60200260200101519050808461075b9190611788565b9350600060028360405161076f9190611564565b908152602001604051809103902060009054906101000a900473ffffffffffffffffffffffffffffffffffffffff169050600073ffffffffffffffffffffffffffffffffffffffff168173ffffffffffffffffffffffffffffffffffffffff16036108ae5730600160006101000a81548173ffffffffffffffffffffffffffffffffffffffff021916908373ffffffffffffffffffffffffffffffffffffffff1602179055508160036000600160009054906101000a900473ffffffffffffffffffffffffffffffffffffffff1673ffffffffffffffffffffffffffffffffffffffff1673ffffffffffffffffffffffffffffffffffffffff168152602001908152602001600020846040516108859190611564565b908152602001604051809103902060008282546108a29190611788565b92505081905550610985565b81600360008373ffffffffffffffffffffffffffffffffffffffff1673ffffffffffffffffffffffffffffffffffffffff168152602001908152602001600020846040516108fc9190611564565b908152602001604051809103902060008282546109199190611788565b925050819055508260405161092e9190611564565b60405180910390208173ffffffffffffffffffffffffffffffffffffffff167ff05aa94f1ac258aebd610cdbdafea4e9d59a4fd25eda90cd991abbcdf3dc7f148460405161097c9190611160565b60405180910390a35b5050508080600101915050610708565b508034146109d8576040517f08c379a00000000000000000000000000000000000000000000000000000000081526004016109cf9061182e565b60405180910390fd5b60005b8351811015610af15760008482815181106109f9576109f8611759565b5b602002602001015190506000848381518110610a1857610a17611759565b5b602002602001015190506000600283604051610a349190611564565b908152602001604051809103902060009054906101000a900473ffffffffffffffffffffffffffffffffffffffff169050600073ffffffffffffffffffffffffffffffffffffffff168173ffffffffffffffffffffffffffffffffffffffff1614610ae1578073ffffffffffffffffffffffffffffffffffffffff166108fc839081150290604051600060405180830381858888f19350505050158015610adf573d6000803e3d6000fd5b505b50505080806001019150506109db565b50505050565b60008054906101000a900473ffffffffffffffffffffffffffffffffffffffff1681565b60008054906101000a900473ffffffffffffffffffffffffffffffffffffffff1673ffffffffffffffffffffffffffffffffffffffff163373ffffffffffffffffffffffffffffffffffffffff1614610ba9576040517f08c379a0000000000000000000000000000000000000000000000000000000008152600401610ba0906118c0565b60405180910390fd5b600073ffffffffffffffffffffffffffffffffffffffff16600283604051610bd19190611564565b908152602001604051809103902060009054906101000a900473ffffffffffffffffffffffffffffffffffffffff1673ffffffffffffffffffffffffffffffffffffffff1614610c56576040517f08c379a0000000000000000000000000000000000000000000000000000000008152600401610c4d90611952565b60405180910390fd5b80600283604051610c679190611564565b908152602001604051809103902060006101000a81548173ffffffffffffffffffffffffffffffffffffffff021916908373ffffffffffffffffffffffffffffffffffffffff16021790555081604051610cc19190611564565b60405180910390207f5face5b6b37ef00f3594696aab234cb398f4071e830982482a2014002278559f82604051610cf891906111d3565b60405180910390a2600060036000600160009054906101000a900473ffffffffffffffffffffffffffffffffffffffff1673ffffffffffffffffffffffffffffffffffffffff1673ffffffffffffffffffffffffffffffffffffffff16815260200190815260200160002083604051610d719190611564565b90815260200160405180910390205490506000811115610ee557600060036000600160009054906101000a900473ffffffffffffffffffffffffffffffffffffffff1673ffffffffffffffffffffffffffffffffffffffff1673ffffffffffffffffffffffffffffffffffffffff16815260200190815260200160002084604051610dfc9190611564565b90815260200160405180910390208190555080600360008473ffffffffffffffffffffffffffffffffffffffff1673ffffffffffffffffffffffffffffffffffffffff16815260200190815260200160002084604051610e5c9190611564565b90815260200160405180910390206000828254610e799190611788565b9250508190555082604051610e8e9190611564565b60405180910390208273ffffffffffffffffffffffffffffffffffffffff167ff05aa94f1ac258aebd610cdbdafea4e9d59a4fd25eda90cd991abbcdf3dc7f1483604051610edc9190611160565b60405180910390a35b505050565b6002818051602081018201805184825260208301602085012081835280955050505050506000915054906101000a900473ffffffffffffffffffffffffffffffffffffffff1681565b6000604051905090565b600080fd5b600080fd5b600073ffffffffffffffffffffffffffffffffffffffff82169050919050565b6000610f7282610f47565b9050919050565b610f8281610f67565b8114610f8d57600080fd5b50565b600081359050610f9f81610f79565b92915050565b600080fd5b600080fd5b6000601f19601f8301169050919050565b7f4e487b7100000000000000000000000000000000000000000000000000000000600052604160045260246000fd5b610ff882610faf565b810181811067ffffffffffffffff8211171561101757611016610fc0565b5b80604052505050565b600061102a610f33565b90506110368282610fef565b919050565b600067ffffffffffffffff82111561105657611055610fc0565b5b61105f82610faf565b9050602081019050919050565b82818337600083830152505050565b600061108e6110898461103b565b611020565b9050828152602081018484840111156110aa576110a9610faa565b5b6110b584828561106c565b509392505050565b600082601f8301126110d2576110d1610fa5565b5b81356110e284826020860161107b565b91505092915050565b6000806040838503121561110257611101610f3d565b5b600061111085828601610f90565b925050602083013567ffffffffffffffff81111561113157611130610f42565b5b61113d858286016110bd565b9150509250929050565b6000819050919050565b61115a81611147565b82525050565b60006020820190506111756000830184611151565b92915050565b60006020828403121561119157611190610f3d565b5b600082013567ffffffffffffffff8111156111af576111ae610f42565b5b6111bb848285016110bd565b91505092915050565b6111cd81610f67565b82525050565b60006020820190506111e860008301846111c4565b92915050565b6111f781611147565b811461120257600080fd5b50565b600081359050611214816111ee565b92915050565b6000806040838503121561123157611230610f3d565b5b600083013567ffffffffffffffff81111561124f5761124e610f42565b5b61125b858286016110bd565b925050602061126c85828601611205565b9150509250929050565b600067ffffffffffffffff82111561129157611290610fc0565b5b602082029050602081019050919050565b600080fd5b60006112ba6112b584611276565b611020565b905080838252602082019050602084028301858111156112dd576112dc6112a2565b5b835b8181101561132457803567ffffffffffffffff81111561130257611301610fa5565b5b80860161130f89826110bd565b855260208501945050506020810190506112df565b5050509392505050565b600082601f83011261134357611342610fa5565b5b81356113538482602086016112a7565b91505092915050565b600067ffffffffffffffff82111561137757611376610fc0565b5b602082029050602081019050919050565b600061139b6113968461135c565b611020565b905080838252602082019050602084028301858111156113be576113bd6112a2565b5b835b818110156113e757806113d38882611205565b8452602084019350506020810190506113c0565b5050509392505050565b600082601f83011261140657611405610fa5565b5b8135611416848260208601611388565b91505092915050565b6000806040838503121561143657611435610f3d565b5b600083013567ffffffffffffffff81111561145457611453610f42565b5b6114608582860161132e565b925050602083013567ffffffffffffffff81111561148157611480610f42565b5b61148d858286016113f1565b9150509250929050565b600080604083850312156114ae576114ad610f3d565b5b600083013567ffffffffffffffff8111156114cc576114cb610f42565b5b6114d8858286016110bd565b92505060206114e985828601610f90565b9150509250929050565b600081519050919050565b600081905092915050565b60005b8381101561152757808201518184015260208101905061150c565b60008484015250505050565b600061153e826114f3565b61154881856114fe565b9350611558818560208601611509565b80840191505092915050565b60006115708284611533565b915081905092915050565b600082825260208201905092915050565b7f596f752063616e206f6e6c792077697468647261772066756e647320666f722060008201527f796f75722061737369676e656420757365726e616d6500000000000000000000602082015250565b60006115e860368361157b565b91506115f38261158c565b604082019050919050565b60006020820190508181036000830152611617816115db565b9050919050565b7f496e73756666696369656e742062616c616e6365000000000000000000000000600082015250565b600061165460148361157b565b915061165f8261161e565b602082019050919050565b6000602082019050818103600083015261168381611647565b9050919050565b7f4e487b7100000000000000000000000000000000000000000000000000000000600052601160045260246000fd5b60006116c482611147565b91506116cf83611147565b92508282039050818111156116e7576116e661168a565b5b92915050565b7f417272617973206d7573742068617665207468652073616d65206c656e677468600082015250565b600061172360208361157b565b915061172e826116ed565b602082019050919050565b6000602082019050818103600083015261175281611716565b9050919050565b7f4e487b7100000000000000000000000000000000000000000000000000000000600052603260045260246000fd5b600061179382611147565b915061179e83611147565b92508282019050808211156117b6576117b561168a565b5b92915050565b7f53656e742076616c7565206d757374206d61746368207468652073756d206f6660008201527f2073706563696669656420616d6f756e74730000000000000000000000000000602082015250565b600061181860328361157b565b9150611823826117bc565b604082019050919050565b600060208201905081810360008301526118478161180b565b9050919050565b7f4f6e6c7920746865206f776e65722063616e20706572666f726d20746869732060008201527f6f7065726174696f6e0000000000000000000000000000000000000000000000602082015250565b60006118aa60298361157b565b91506118b58261184e565b604082019050919050565b600060208201905081810360008301526118d98161189d565b9050919050565b7f557365726e616d6520616c72656164792068617320616e2061737369676e656460008201527f2061646472657373000000000000000000000000000000000000000000000000602082015250565b600061193c60288361157b565b9150611947826118e0565b604082019050919050565b6000602082019050818103600083015261196b8161192f565b905091905056fea264697066735822122069b2e27b2de0269a915b93126c50dddc5e033cabad38fd4ff59ca02d39f51f4164736f6c63430008180033",
  "linkReferences": {},
  "deployedLinkReferences": {}
}